{
  "description": "EIP-1559 (Type 2) ETH transfer transaction - Native ETH transfer using dynamic fee market",
  "raw_tx": "0x02f8730101847735940084773594008252089495ad61b0a150d79219dcf64e1e6cc01f0b64c4ce880de0b6b3a764000080c080a0e9d9f35c8b4a8e4da5fb0f6dd3cb0e49da8d4c0b7b0e0c2c2d8c8a1e3f4a5b6c7a07f8e9d0c1b2a3948576605f4e3d2c1b0a99887766554433221100112233445566",
  "expected": {
    "tx_type": "Transfer",
    "recipient": "0x95aD61b0a150d79219dCF64E1E6Cc01f0B64C4cE",
    "amount": "1000000000000000000",
    "token": "ETH",
    "chain_id": 1,
    "nonce": 1,
    "gas_limit": 21000,
    "max_fee_per_gas": "2000000000",
    "max_priority_fee_per_gas": "2000000000",
    "access_list": []
  },
  "metadata": {
    "description": "Transfers 1 ETH using EIP-1559 fee mechanism on Ethereum mainnet",
    "value_eth": "1.0",
    "max_fee_gwei": "2",
    "max_priority_fee_gwei": "2",
    "source": "Generated for TxGate testing - follows EIP-1559 (Type 2 transaction)"
  }
}
