{
  "description": "Legacy (Type 0) ETH transfer transaction - Simple native ETH transfer using pre-EIP-1559 gas pricing",
  "raw_tx": "0xf86c098504a817c800825208943535353535353535353535353535353535353535880de0b6b3a76400008025a028ef61340bd939bc2195fe537567866003e1a15d3c71ff63e1590620aa636276a067cbe9d8997f761aecb703304b3800ccf555c9f3dc64214b297fb1966a3b6d83",
  "expected": {
    "tx_type": "Transfer",
    "recipient": "0x3535353535353535353535353535353535353535",
    "amount": "1000000000000000000",
    "token": "ETH",
    "chain_id": 1,
    "nonce": 9,
    "gas_limit": 21000,
    "gas_price": "20000000000"
  },
  "metadata": {
    "description": "Transfers 1 ETH to a test address on Ethereum mainnet",
    "value_eth": "1.0",
    "gas_price_gwei": "20",
    "source": "Generated for TxGate testing - follows EIP-155 replay protection"
  }
}
